{
  "_format": "hh-sol-artifact-1",
  "contractName": "PaperHandsStaking",
  "sourceName": "contracts/PaperHandsStaking.sol",
  "abi": [
    {
      "anonymous": false,
      "inputs": [
        {
          "indexed": false,
          "internalType": "uint8",
          "name": "version",
          "type": "uint8"
        }
      ],
      "name": "Initialized",
      "type": "event"
    },
    {
      "anonymous": false,
      "inputs": [
        {
          "indexed": true,
          "internalType": "address",
          "name": "previousOwner",
          "type": "address"
        },
        {
          "indexed": true,
          "internalType": "address",
          "name": "newOwner",
          "type": "address"
        }
      ],
      "name": "OwnershipTransferred",
      "type": "event"
    },
    {
      "anonymous": false,
      "inputs": [
        {
          "indexed": true,
          "internalType": "address",
          "name": "user",
          "type": "address"
        },
        {
          "indexed": true,
          "internalType": "uint256[]",
          "name": "tokenIDs",
          "type": "uint256[]"
        },
        {
          "indexed": true,
          "internalType": "bool",
          "name": "locked",
          "type": "bool"
        }
      ],
      "name": "Stake",
      "type": "event"
    },
    {
      "anonymous": false,
      "inputs": [
        {
          "indexed": true,
          "internalType": "address",
          "name": "user",
          "type": "address"
        },
        {
          "indexed": true,
          "internalType": "uint256[]",
          "name": "tokenIDs",
          "type": "uint256[]"
        },
        {
          "indexed": true,
          "internalType": "bool",
          "name": "locked",
          "type": "bool"
        }
      ],
      "name": "Withdraw",
      "type": "event"
    },
    {
      "inputs": [],
      "name": "activeEmission",
      "outputs": [
        {
          "internalType": "uint256",
          "name": "",
          "type": "uint256"
        }
      ],
      "stateMutability": "view",
      "type": "function"
    },
    {
      "inputs": [
        {
          "internalType": "address",
          "name": "_admin",
          "type": "address"
        }
      ],
      "name": "addAdmin",
      "outputs": [],
      "stateMutability": "nonpayable",
      "type": "function"
    },
    {
      "inputs": [],
      "name": "diamondHandsPassContract",
      "outputs": [
        {
          "internalType": "address",
          "name": "",
          "type": "address"
        }
      ],
      "stateMutability": "view",
      "type": "function"
    },
    {
      "inputs": [
        {
          "internalType": "address",
          "name": "_paperHandsContract",
          "type": "address"
        },
        {
          "internalType": "uint256",
          "name": "_startTime",
          "type": "uint256"
        }
      ],
      "name": "initialize",
      "outputs": [],
      "stateMutability": "nonpayable",
      "type": "function"
    },
    {
      "inputs": [
        {
          "internalType": "address",
          "name": "",
          "type": "address"
        }
      ],
      "name": "lastUpdates",
      "outputs": [
        {
          "internalType": "uint256",
          "name": "passive",
          "type": "uint256"
        },
        {
          "internalType": "uint256",
          "name": "active",
          "type": "uint256"
        },
        {
          "internalType": "uint256",
          "name": "lock",
          "type": "uint256"
        }
      ],
      "stateMutability": "view",
      "type": "function"
    },
    {
      "inputs": [],
      "name": "lockDuration",
      "outputs": [
        {
          "internalType": "uint256",
          "name": "",
          "type": "uint256"
        }
      ],
      "stateMutability": "view",
      "type": "function"
    },
    {
      "inputs": [],
      "name": "lockEmission",
      "outputs": [
        {
          "internalType": "uint256",
          "name": "",
          "type": "uint256"
        }
      ],
      "stateMutability": "view",
      "type": "function"
    },
    {
      "inputs": [
        {
          "internalType": "address",
          "name": "",
          "type": "address"
        },
        {
          "internalType": "address",
          "name": "",
          "type": "address"
        },
        {
          "internalType": "uint256",
          "name": "_tokenId",
          "type": "uint256"
        },
        {
          "internalType": "bytes",
          "name": "",
          "type": "bytes"
        }
      ],
      "name": "onERC721Received",
      "outputs": [
        {
          "internalType": "bytes4",
          "name": "",
          "type": "bytes4"
        }
      ],
      "stateMutability": "nonpayable",
      "type": "function"
    },
    {
      "inputs": [],
      "name": "owner",
      "outputs": [
        {
          "internalType": "address",
          "name": "",
          "type": "address"
        }
      ],
      "stateMutability": "view",
      "type": "function"
    },
    {
      "inputs": [],
      "name": "paperHandsContract",
      "outputs": [
        {
          "internalType": "address",
          "name": "",
          "type": "address"
        }
      ],
      "stateMutability": "view",
      "type": "function"
    },
    {
      "inputs": [],
      "name": "passiveEmission",
      "outputs": [
        {
          "internalType": "uint256",
          "name": "",
          "type": "uint256"
        }
      ],
      "stateMutability": "view",
      "type": "function"
    },
    {
      "inputs": [
        {
          "internalType": "address",
          "name": "_admin",
          "type": "address"
        }
      ],
      "name": "removeAdmin",
      "outputs": [],
      "stateMutability": "nonpayable",
      "type": "function"
    },
    {
      "inputs": [],
      "name": "renounceOwnership",
      "outputs": [],
      "stateMutability": "nonpayable",
      "type": "function"
    },
    {
      "inputs": [
        {
          "internalType": "address",
          "name": "",
          "type": "address"
        }
      ],
      "name": "rewards",
      "outputs": [
        {
          "internalType": "uint256",
          "name": "passive",
          "type": "uint256"
        },
        {
          "internalType": "uint256",
          "name": "active",
          "type": "uint256"
        },
        {
          "internalType": "uint256",
          "name": "lock",
          "type": "uint256"
        }
      ],
      "stateMutability": "view",
      "type": "function"
    },
    {
      "inputs": [
        {
          "internalType": "uint256",
          "name": "_activeEmission",
          "type": "uint256"
        }
      ],
      "name": "setActiveEmission",
      "outputs": [],
      "stateMutability": "nonpayable",
      "type": "function"
    },
    {
      "inputs": [
        {
          "internalType": "address",
          "name": "_address1155",
          "type": "address"
        }
      ],
      "name": "setAddress1155",
      "outputs": [],
      "stateMutability": "nonpayable",
      "type": "function"
    },
    {
      "inputs": [
        {
          "internalType": "uint256",
          "name": "_lockEmission",
          "type": "uint256"
        }
      ],
      "name": "setLockEmission",
      "outputs": [],
      "stateMutability": "nonpayable",
      "type": "function"
    },
    {
      "inputs": [
        {
          "internalType": "uint256",
          "name": "_passiveEmission",
          "type": "uint256"
        }
      ],
      "name": "setPassiveEmission",
      "outputs": [],
      "stateMutability": "nonpayable",
      "type": "function"
    },
    {
      "inputs": [
        {
          "internalType": "uint256",
          "name": "_timestamp",
          "type": "uint256"
        }
      ],
      "name": "setStartTime",
      "outputs": [],
      "stateMutability": "nonpayable",
      "type": "function"
    },
    {
      "inputs": [
        {
          "internalType": "uint256",
          "name": "_timestamp1155",
          "type": "uint256"
        }
      ],
      "name": "setTimestamp1155",
      "outputs": [],
      "stateMutability": "nonpayable",
      "type": "function"
    },
    {
      "inputs": [
        {
          "internalType": "address",
          "name": "owner",
          "type": "address"
        },
        {
          "internalType": "uint256[]",
          "name": "tokenIds",
          "type": "uint256[]"
        }
      ],
      "name": "stakeActive",
      "outputs": [],
      "stateMutability": "nonpayable",
      "type": "function"
    },
    {
      "inputs": [
        {
          "internalType": "address",
          "name": "owner",
          "type": "address"
        },
        {
          "internalType": "uint256[]",
          "name": "tokenIds",
          "type": "uint256[]"
        }
      ],
      "name": "stakeLock",
      "outputs": [],
      "stateMutability": "nonpayable",
      "type": "function"
    },
    {
      "inputs": [
        {
          "internalType": "address",
          "name": "",
          "type": "address"
        },
        {
          "internalType": "uint256",
          "name": "",
          "type": "uint256"
        }
      ],
      "name": "stakedActiveTokens",
      "outputs": [
        {
          "internalType": "uint256",
          "name": "",
          "type": "uint256"
        }
      ],
      "stateMutability": "view",
      "type": "function"
    },
    {
      "inputs": [
        {
          "internalType": "address",
          "name": "",
          "type": "address"
        },
        {
          "internalType": "uint256",
          "name": "",
          "type": "uint256"
        }
      ],
      "name": "stakedLockTokens",
      "outputs": [
        {
          "internalType": "uint256",
          "name": "",
          "type": "uint256"
        }
      ],
      "stateMutability": "view",
      "type": "function"
    },
    {
      "inputs": [
        {
          "internalType": "uint256",
          "name": "",
          "type": "uint256"
        }
      ],
      "name": "stakedLockTokensTimestamps",
      "outputs": [
        {
          "internalType": "uint256",
          "name": "",
          "type": "uint256"
        }
      ],
      "stateMutability": "view",
      "type": "function"
    },
    {
      "inputs": [],
      "name": "startTime",
      "outputs": [
        {
          "internalType": "uint256",
          "name": "",
          "type": "uint256"
        }
      ],
      "stateMutability": "view",
      "type": "function"
    },
    {
      "inputs": [],
      "name": "timestamp1155",
      "outputs": [
        {
          "internalType": "uint256",
          "name": "",
          "type": "uint256"
        }
      ],
      "stateMutability": "view",
      "type": "function"
    },
    {
      "inputs": [
        {
          "internalType": "address",
          "name": "newOwner",
          "type": "address"
        }
      ],
      "name": "transferOwnership",
      "outputs": [],
      "stateMutability": "nonpayable",
      "type": "function"
    },
    {
      "inputs": [
        {
          "internalType": "address",
          "name": "_from",
          "type": "address"
        },
        {
          "internalType": "address",
          "name": "_to",
          "type": "address"
        }
      ],
      "name": "transferRewards",
      "outputs": [],
      "stateMutability": "nonpayable",
      "type": "function"
    },
    {
      "inputs": [
        {
          "internalType": "address",
          "name": "_user",
          "type": "address"
        }
      ],
      "name": "viewActivePendingReward",
      "outputs": [
        {
          "internalType": "uint256",
          "name": "",
          "type": "uint256"
        }
      ],
      "stateMutability": "view",
      "type": "function"
    },
    {
      "inputs": [
        {
          "internalType": "address",
          "name": "_user",
          "type": "address"
        }
      ],
      "name": "viewActiveTokens",
      "outputs": [
        {
          "internalType": "uint256[]",
          "name": "activeTokens",
          "type": "uint256[]"
        }
      ],
      "stateMutability": "view",
      "type": "function"
    },
    {
      "inputs": [
        {
          "internalType": "address",
          "name": "_user",
          "type": "address"
        }
      ],
      "name": "viewAllPendingReward",
      "outputs": [
        {
          "internalType": "uint256",
          "name": "",
          "type": "uint256"
        }
      ],
      "stateMutability": "view",
      "type": "function"
    },
    {
      "inputs": [
        {
          "internalType": "address",
          "name": "_user",
          "type": "address"
        }
      ],
      "name": "viewAllRewards",
      "outputs": [
        {
          "internalType": "uint256",
          "name": "",
          "type": "uint256"
        }
      ],
      "stateMutability": "view",
      "type": "function"
    },
    {
      "inputs": [
        {
          "internalType": "address",
          "name": "_user",
          "type": "address"
        }
      ],
      "name": "viewLockPendingReward",
      "outputs": [
        {
          "internalType": "uint256",
          "name": "",
          "type": "uint256"
        }
      ],
      "stateMutability": "view",
      "type": "function"
    },
    {
      "inputs": [
        {
          "internalType": "address",
          "name": "_user",
          "type": "address"
        }
      ],
      "name": "viewLockTokens",
      "outputs": [
        {
          "internalType": "uint256[]",
          "name": "lockTokens",
          "type": "uint256[]"
        }
      ],
      "stateMutability": "view",
      "type": "function"
    },
    {
      "inputs": [
        {
          "internalType": "address",
          "name": "_user",
          "type": "address"
        }
      ],
      "name": "viewPassivePendingReward",
      "outputs": [
        {
          "internalType": "uint256",
          "name": "",
          "type": "uint256"
        }
      ],
      "stateMutability": "view",
      "type": "function"
    },
    {
      "inputs": [],
      "name": "withdrawActive",
      "outputs": [],
      "stateMutability": "nonpayable",
      "type": "function"
    },
    {
      "inputs": [],
      "name": "withdrawLock",
      "outputs": [],
      "stateMutability": "nonpayable",
      "type": "function"
    }
  ],
  "bytecode": "0x608060405234801561001057600080fd5b50611fb6806100206000396000f3fe608060405234801561001057600080fd5b50600436106102325760003560e01c806379f9965911610130578063be083b23116100b8578063e00a07f61161007c578063e00a07f614610527578063e9b865721461053a578063eda94c941461054d578063efdf805f14610556578063f2fde38b1461056957600080fd5b8063be083b23146104bb578063c8ace405146104ce578063cd6dc687146104e1578063db41de0c146104f4578063dc55a8b71461050757600080fd5b806394888fad116100ff57806394888fad14610471578063ac88c75f14610484578063b79a42eb14610497578063b7c1d1a01461049f578063bc6c7089146104b257600080fd5b806379f996591461041d578063832df980146104305780638da5cb5b14610439578063938a82141461045e57600080fd5b80632ce55c3a116101be5780635c388ca6116101825780635c388ca6146103e857806365d24ee1146103f057806370480275146103f9578063715018a61461040c57806378e979251461041457600080fd5b80632ce55c3a14610389578063376fb6c81461039c5780633ac6215e146103af5780633cd19df1146103c25780633e0a322d146103d557600080fd5b8063150b7a0211610205578063150b7a02146102e15780631785f53c146103305780631d1b4ea0146103435780631ed5901714610356578063296d5fed1461037657600080fd5b80630455444314610237578063065d8ec0146102535780630700037d146102685780631329a7d2146102b2575b600080fd5b61024060675481565b6040519081526020015b60405180910390f35b610266610261366004611b32565b61057c565b005b610297610276366004611beb565b606e6020526000908152604090208054600182015460029092015490919083565b6040805193845260208401929092529082015260600161024a565b6102976102c0366004611beb565b606d6020526000908152604090208054600182015460029092015490919083565b6102ff6102ef366004611c06565b630a85bd0160e11b949350505050565b6040517fffffffff00000000000000000000000000000000000000000000000000000000909116815260200161024a565b61026661033e366004611beb565b6106f2565b610266610351366004611cc6565b61077d565b610369610364366004611beb565b61078a565b60405161024a9190611d1a565b610266610384366004611b32565b610861565b610240610397366004611beb565b610a7c565b6102406103aa366004611beb565b610a8d565b6102406103bd366004611beb565b610ae7565b6102406103d0366004611beb565b610af2565b6102666103e3366004611cc6565b610b23565b610266610b40565b61024060695481565b610266610407366004611beb565b610f75565b610266610ff7565b610240606c5481565b61024061042b366004611d2d565b61100b565b610240606a5481565b6033546001600160a01b03165b6040516001600160a01b03909116815260200161024a565b61024061046c366004611d2d565b61103c565b61036961047f366004611beb565b611058565b610266610492366004611beb565b611128565b610266611152565b6102666104ad366004611cc6565b61135a565b61024060725481565b606554610446906001600160a01b031681565b6102666104dc366004611cc6565b611367565b6102666104ef366004611d2d565b611374565b610240610502366004611beb565b6114e3565b610240610515366004611cc6565b60716020526000908152604090205481565b610266610535366004611cc6565b6114ee565b610266610548366004611d57565b6114fb565b61024060685481565b606654610446906001600160a01b031681565b610266610577366004611beb565b61163f565b610585826116b5565b6001600160a01b0383166000908152606e6020526040812060010180549091906105b0908490611da0565b90915550506001600160a01b0382166000908152606d60205260408120426001909101555b815181101561063b576001600160a01b0383166000908152606f60205260409020825183908390811061060a5761060a611db8565b602090810291909101810151825460018101845560009384529190922001558061063381611dce565b9150506105d5565b506065546040516305a4fee360e41b81526001600160a01b0390911690635a4fee309061067090859030908690600401611de9565b600060405180830381600087803b15801561068a57600080fd5b505af115801561069e573d6000803e3d6000fd5b5050604051600092506106b391508390611e30565b604051908190038120906001600160a01b038516907fa073925937044fe2816cf56b30bef744ef9989289c17ac3e5cf4090064385d5790600090a45050565b6106fa61174a565b6001600160a01b0381166000908152606b602052604090205460ff16151560011461075c5760405162461bcd60e51b815260206004820152600d60248201526c105113525397d393d517d4d155609a1b60448201526064015b60405180910390fd5b6001600160a01b03166000908152606b60205260409020805460ff19169055565b61078561174a565b606855565b6001600160a01b0381166000908152607060205260409020546060908067ffffffffffffffff8111156107bf576107bf611aeb565b6040519080825280602002602001820160405280156107e8578160200160208202803683370190505b50915060005b8181101561085a576001600160a01b038416600090815260706020526040902080548290811061082057610820611db8565b906000526020600020015483828151811061083d5761083d611db8565b60209081029190910101528061085281611dce565b9150506107ee565b5050919050565b61086a826117a4565b6001600160a01b0383166000908152606e602052604081206002018054909190610895908490611da0565b90915550506001600160a01b0382166000908152606d60205260408120426002909101555b815181101561097a576001600160a01b038316600090815260706020526040902082518390839081106108ef576108ef611db8565b6020908102919091018101518254600181018455600093845291909220015560675462015180906109209042611da0565b61092a9190611e66565b6109379062015180611e88565b6071600084848151811061094d5761094d611db8565b6020026020010151815260200190815260200160002081905550808061097290611dce565b9150506108ba565b506065546040516305a4fee360e41b81526001600160a01b0390911690635a4fee30906109af90859030908690600401611de9565b600060405180830381600087803b1580156109c957600080fd5b505af11580156109dd573d6000803e3d6000fd5b505050506072544211610a6b576000600282516109fa9190611e66565b90508015610a69576066546040516340c10f1960e01b81526001600160a01b03858116600483015260248201849052909116906340c10f1990604401600060405180830381600087803b158015610a5057600080fd5b505af1158015610a64573d6000803e3d6000fd5b505050505b505b6040516001906106b3908390611e30565b6000610a87826117a4565b92915050565b6001600160a01b0381166000908152606e6020908152604080832081516060810183528154808252600183015494820185905260029092015492810183905292610ad691611da0565b610ae09190611da0565b9392505050565b6000610a8782611825565b6000610afd826117a4565b610b06836116b5565b610b0f84611825565b610b199190611da0565b610a879190611da0565b610b2b61174a565b80610b375742606c5550565b606c8190555b50565b610b49336117a4565b336000908152606e602052604081206002018054909190610b6b908490611da0565b9091555050336000908152606d6020908152604080832042600290910155607090915281209080805b8354811015610c085760716000858381548110610bb357610bb3611db8565b90600052602060002001548152602001908152602001600020544210610be657610bde836001611da0565b925082610bf5565b610bf1826001611da0565b9150815b5080610c0081611dce565b915050610b94565b5060008211610c475760405162461bcd60e51b815260206004820152600b60248201526a1393d7d5539313d0d2d15160aa1b6044820152606401610753565b80610d12576065546040516305a4fee360e41b81526001600160a01b0390911690635a4fee3090610c8090309033908890600401611ea7565b600060405180830381600087803b158015610c9a57600080fd5b505af1158015610cae573d6000803e3d6000fd5b505060405160019250610cc391508590611f1f565b6040519081900381209033907f7136b4396924d81ef4c0f495ab0a988a399c5bfa85aeb1c0fb1e871e60b6bd9e90600090a4336000908152607060205260408120610d0d91611a51565b505050565b60008267ffffffffffffffff811115610d2d57610d2d611aeb565b604051908082528060200260200182016040528015610d56578160200160208202803683370190505b50905060008267ffffffffffffffff811115610d7457610d74611aeb565b604051908082528060200260200182016040528015610d9d578160200160208202803683370190505b509050838360005b8754811015610ea15760716000898381548110610dc457610dc4611db8565b9060005260206000200154815260200190815260200160002054421015610e3c57878181548110610df757610df7611db8565b9060005260206000200154848784610e0f9190611f50565b81518110610e1f57610e1f611db8565b6020908102919091010152610e35600187611f50565b9550610e8f565b878181548110610e4e57610e4e611db8565b9060005260206000200154858885610e669190611f50565b81518110610e7657610e76611db8565b6020908102919091010152610e8c600188611f50565b96505b80610e9981611dce565b915050610da5565b503360009081526070602090815260409091208451610ec292860190611a6f565b506065546040516305a4fee360e41b81526001600160a01b0390911690635a4fee3090610ef790309033908990600401611de9565b600060405180830381600087803b158015610f1157600080fd5b505af1158015610f25573d6000803e3d6000fd5b505060405160019250610f3a91508690611e30565b6040519081900381209033907f7136b4396924d81ef4c0f495ab0a988a399c5bfa85aeb1c0fb1e871e60b6bd9e90600090a450505050505050565b610f7d61174a565b6001600160a01b038116610fd35760405162461bcd60e51b815260206004820152600f60248201527f494e56414c49445f4144445245535300000000000000000000000000000000006044820152606401610753565b6001600160a01b03166000908152606b60205260409020805460ff19166001179055565b610fff61174a565b611009600061191d565b565b6070602052816000526040600020818154811061102757600080fd5b90600052602060002001600091509150505481565b606f602052816000526040600020818154811061102757600080fd5b6001600160a01b0381166000908152606f60205260409020546060908067ffffffffffffffff81111561108d5761108d611aeb565b6040519080825280602002602001820160405280156110b6578160200160208202803683370190505b50915060005b8181101561085a576001600160a01b0384166000908152606f602052604090208054829081106110ee576110ee611db8565b906000526020600020015483828151811061110b5761110b611db8565b60209081029190910101528061112081611dce565b9150506110bc565b61113061174a565b606680546001600160a01b0319166001600160a01b0392909216919091179055565b61115b336116b5565b336000908152606e60205260408120600101805490919061117d908490611da0565b9091555050336000908152606d6020908152604080832042600190910155606f909152902054806111f05760405162461bcd60e51b815260206004820152600f60248201527f4e4f5f4143544956455f5354414b4500000000000000000000000000000000006044820152606401610753565b60008167ffffffffffffffff81111561120b5761120b611aeb565b604051908082528060200260200182016040528015611234578160200160208202803683370190505b50336000908152606f6020908152604091829020805483518184028101840190945280845293945091929083018282801561128e57602002820191906000526020600020905b81548152602001906001019080831161127a575b50506065546040516305a4fee360e41b81529495506001600160a01b031693635a4fee3093506112c8925030915033908690600401611de9565b600060405180830381600087803b1580156112e257600080fd5b505af11580156112f6573d6000803e3d6000fd5b5050336000908152606f6020526040812061131393509150611a51565b604051600090611324908390611e30565b6040519081900381209033907f7136b4396924d81ef4c0f495ab0a988a399c5bfa85aeb1c0fb1e871e60b6bd9e90600090a45050565b61136261174a565b606955565b61136f61174a565b606a55565b600054610100900460ff16158080156113945750600054600160ff909116105b806113ae5750303b1580156113ae575060005460ff166001145b6114205760405162461bcd60e51b815260206004820152602e60248201527f496e697469616c697a61626c653a20636f6e747261637420697320616c72656160448201527f647920696e697469616c697a65640000000000000000000000000000000000006064820152608401610753565b6000805460ff191660011790558015611443576000805461ff0019166101001790555b61144b61196f565b606580546001600160a01b0319166001600160a01b038516179055606c8290556249d40060675568056bc75e2d63100000606855680ad78ebc5ac620000060695568302379bf2ca2e00000606a558015610d0d576000805461ff0019169055604051600181527f7f26b83ff96e1f2b6a682f133852f6798a09c465da95921460cefb38474024989060200160405180910390a1505050565b6000610a87826116b5565b6114f661174a565b607255565b336000908152606b602052604090205460ff16151560011461154b5760405162461bcd60e51b81526020600482015260096024820152682727aa2fa0a226a4a760b91b6044820152606401610753565b6001600160a01b0382161580159061156c57506001600160a01b0382163014155b156115c35761157a82611825565b6001600160a01b0383166000908152606e6020526040812080549091906115a2908490611da0565b90915550506001600160a01b0382166000908152606d602052604090204290555b6001600160a01b038116158015906115e457506001600160a01b0381163014155b1561163b576115f281611825565b6001600160a01b0382166000908152606e60205260408120805490919061161a908490611da0565b90915550506001600160a01b0381166000908152606d602052604090204290555b5050565b61164761174a565b6001600160a01b0381166116ac5760405162461bcd60e51b815260206004820152602660248201527f4f776e61626c653a206e6577206f776e657220697320746865207a65726f206160448201526564647265737360d01b6064820152608401610753565b610b3d8161191d565b606c546001600160a01b0382166000908152606d60205260408120600101549091620151809110156116e957606c54611706565b6001600160a01b0383166000908152606d60205260409020600101545b6117109042611f50565b6069546001600160a01b0385166000908152606f60205260409020546117369190611e88565b6117409190611e88565b610a879190611e66565b6033546001600160a01b031633146110095760405162461bcd60e51b815260206004820181905260248201527f4f776e61626c653a2063616c6c6572206973206e6f7420746865206f776e65726044820152606401610753565b606c546001600160a01b0382166000908152606d60205260408120600201549091620151809110156117d857606c546117f5565b6001600160a01b0383166000908152606d60205260409020600201545b6117ff9042611f50565b606a546001600160a01b0385166000908152607060205260409020546117369190611e88565b60006001600160a01b03821630141561184057506000919050565b606c546001600160a01b0383166000908152606d60205260409020546201518091111561186f57606c54611889565b6001600160a01b0383166000908152606d60205260409020545b6118939042611f50565b6068546065546040516370a0823160e01b81526001600160a01b038781166004830152909116906370a082319060240160206040518083038186803b1580156118db57600080fd5b505afa1580156118ef573d6000803e3d6000fd5b505050506040513d601f19601f820116820180604052508101906119139190611f67565b6117369190611e88565b603380546001600160a01b038381166001600160a01b0319831681179093556040519116919082907f8be0079c531659141344cd1fd0a4f28419497f9722a3daafe3b4186f6b6457e090600090a35050565b600054610100900460ff166119da5760405162461bcd60e51b815260206004820152602b60248201527f496e697469616c697a61626c653a20636f6e7472616374206973206e6f74206960448201526a6e697469616c697a696e6760a81b6064820152608401610753565b611009600054610100900460ff16611a485760405162461bcd60e51b815260206004820152602b60248201527f496e697469616c697a61626c653a20636f6e7472616374206973206e6f74206960448201526a6e697469616c697a696e6760a81b6064820152608401610753565b6110093361191d565b5080546000825590600052602060002090810190610b3d9190611aba565b828054828255906000526020600020908101928215611aaa579160200282015b82811115611aaa578251825591602001919060010190611a8f565b50611ab6929150611aba565b5090565b5b80821115611ab65760008155600101611abb565b80356001600160a01b0381168114611ae657600080fd5b919050565b634e487b7160e01b600052604160045260246000fd5b604051601f8201601f1916810167ffffffffffffffff81118282101715611b2a57611b2a611aeb565b604052919050565b60008060408385031215611b4557600080fd5b611b4e83611acf565b915060208084013567ffffffffffffffff80821115611b6c57600080fd5b818601915086601f830112611b8057600080fd5b813581811115611b9257611b92611aeb565b8060051b9150611ba3848301611b01565b8181529183018401918481019089841115611bbd57600080fd5b938501935b83851015611bdb57843582529385019390850190611bc2565b8096505050505050509250929050565b600060208284031215611bfd57600080fd5b610ae082611acf565b60008060008060808587031215611c1c57600080fd5b611c2585611acf565b93506020611c34818701611acf565b935060408601359250606086013567ffffffffffffffff80821115611c5857600080fd5b818801915088601f830112611c6c57600080fd5b813581811115611c7e57611c7e611aeb565b611c90601f8201601f19168501611b01565b91508082528984828501011115611ca657600080fd5b808484018584013760008482840101525080935050505092959194509250565b600060208284031215611cd857600080fd5b5035919050565b600081518084526020808501945080840160005b83811015611d0f57815187529582019590820190600101611cf3565b509495945050505050565b602081526000610ae06020830184611cdf565b60008060408385031215611d4057600080fd5b611d4983611acf565b946020939093013593505050565b60008060408385031215611d6a57600080fd5b611d7383611acf565b9150611d8160208401611acf565b90509250929050565b634e487b7160e01b600052601160045260246000fd5b60008219821115611db357611db3611d8a565b500190565b634e487b7160e01b600052603260045260246000fd5b6000600019821415611de257611de2611d8a565b5060010190565b60006001600160a01b03808616835280851660208401525060806040830152611e156080830184611cdf565b82810360608401526000815260208101915050949350505050565b815160009082906020808601845b83811015611e5a57815185529382019390820190600101611e3e565b50929695505050505050565b600082611e8357634e487b7160e01b600052601260045260246000fd5b500490565b6000816000190483118215151615611ea257611ea2611d8a565b500290565b6000608082016001600160a01b03808716845260208187168186015260806040860152829150855480845260a0860192508660005281600020935060005b81811015611f0157845484526001948501949383019301611ee5565b50508482036060860152600082528082019350505050949350505050565b60008183548391508460005260208060002060005b83811015611e5a57815485529382019360019182019101611f34565b600082821015611f6257611f62611d8a565b500390565b600060208284031215611f7957600080fd5b505191905056fea2646970667358221220c100a063a620b18dd44fe52b9480657925b09e926822ffc16989606a3dd1692564736f6c63430008090033",
  "linkReferences": {},
  "deployedLinkReferences": {}
}